{
  "_format": "hh-sol-artifact-1",
  "contractName": "FilterConnectToken",
  "sourceName": "contracts/FilterConnectToken.sol",
  "abi": [
    {
      "inputs": [],
      "stateMutability": "nonpayable",
      "type": "constructor"
    },
    {
      "anonymous": false,
      "inputs": [
        {
          "indexed": true,
          "internalType": "address",
          "name": "owner",
          "type": "address"
        },
        {
          "indexed": true,
          "internalType": "address",
          "name": "approved",
          "type": "address"
        },
        {
          "indexed": true,
          "internalType": "uint256",
          "name": "tokenId",
          "type": "uint256"
        }
      ],
      "name": "Approval",
      "type": "event"
    },
    {
      "anonymous": false,
      "inputs": [
        {
          "indexed": true,
          "internalType": "address",
          "name": "owner",
          "type": "address"
        },
        {
          "indexed": true,
          "internalType": "address",
          "name": "operator",
          "type": "address"
        },
        {
          "indexed": false,
          "internalType": "bool",
          "name": "approved",
          "type": "bool"
        }
      ],
      "name": "ApprovalForAll",
      "type": "event"
    },
    {
      "anonymous": false,
      "inputs": [
        {
          "indexed": true,
          "internalType": "address",
          "name": "previousOwner",
          "type": "address"
        },
        {
          "indexed": true,
          "internalType": "address",
          "name": "newOwner",
          "type": "address"
        }
      ],
      "name": "OwnershipTransferred",
      "type": "event"
    },
    {
      "anonymous": false,
      "inputs": [
        {
          "indexed": true,
          "internalType": "address",
          "name": "from",
          "type": "address"
        },
        {
          "indexed": true,
          "internalType": "address",
          "name": "to",
          "type": "address"
        },
        {
          "indexed": true,
          "internalType": "uint256",
          "name": "tokenId",
          "type": "uint256"
        }
      ],
      "name": "Transfer",
      "type": "event"
    },
    {
      "inputs": [
        {
          "internalType": "address",
          "name": "to",
          "type": "address"
        },
        {
          "internalType": "uint256",
          "name": "tokenId",
          "type": "uint256"
        }
      ],
      "name": "approve",
      "outputs": [],
      "stateMutability": "nonpayable",
      "type": "function"
    },
    {
      "inputs": [
        {
          "internalType": "address",
          "name": "owner",
          "type": "address"
        }
      ],
      "name": "balanceOf",
      "outputs": [
        {
          "internalType": "uint256",
          "name": "",
          "type": "uint256"
        }
      ],
      "stateMutability": "view",
      "type": "function"
    },
    {
      "inputs": [
        {
          "internalType": "uint256",
          "name": "tokenId",
          "type": "uint256"
        }
      ],
      "name": "getApproved",
      "outputs": [
        {
          "internalType": "address",
          "name": "",
          "type": "address"
        }
      ],
      "stateMutability": "view",
      "type": "function"
    },
    {
      "inputs": [
        {
          "internalType": "address",
          "name": "owner",
          "type": "address"
        },
        {
          "internalType": "address",
          "name": "operator",
          "type": "address"
        }
      ],
      "name": "isApprovedForAll",
      "outputs": [
        {
          "internalType": "bool",
          "name": "",
          "type": "bool"
        }
      ],
      "stateMutability": "view",
      "type": "function"
    },
    {
      "inputs": [],
      "name": "name",
      "outputs": [
        {
          "internalType": "string",
          "name": "",
          "type": "string"
        }
      ],
      "stateMutability": "view",
      "type": "function"
    },
    {
      "inputs": [],
      "name": "owner",
      "outputs": [
        {
          "internalType": "address",
          "name": "",
          "type": "address"
        }
      ],
      "stateMutability": "view",
      "type": "function"
    },
    {
      "inputs": [
        {
          "internalType": "uint256",
          "name": "tokenId",
          "type": "uint256"
        }
      ],
      "name": "ownerOf",
      "outputs": [
        {
          "internalType": "address",
          "name": "",
          "type": "address"
        }
      ],
      "stateMutability": "view",
      "type": "function"
    },
    {
      "inputs": [],
      "name": "renounceOwnership",
      "outputs": [],
      "stateMutability": "nonpayable",
      "type": "function"
    },
    {
      "inputs": [
        {
          "internalType": "address",
          "name": "to",
          "type": "address"
        },
        {
          "internalType": "uint256",
          "name": "tokenId",
          "type": "uint256"
        },
        {
          "internalType": "string",
          "name": "uri",
          "type": "string"
        }
      ],
      "name": "safeMint",
      "outputs": [
        {
          "internalType": "uint256",
          "name": "",
          "type": "uint256"
        }
      ],
      "stateMutability": "nonpayable",
      "type": "function"
    },
    {
      "inputs": [
        {
          "internalType": "address",
          "name": "from",
          "type": "address"
        },
        {
          "internalType": "address",
          "name": "to",
          "type": "address"
        },
        {
          "internalType": "uint256",
          "name": "tokenId",
          "type": "uint256"
        }
      ],
      "name": "safeTransferFrom",
      "outputs": [],
      "stateMutability": "nonpayable",
      "type": "function"
    },
    {
      "inputs": [
        {
          "internalType": "address",
          "name": "from",
          "type": "address"
        },
        {
          "internalType": "address",
          "name": "to",
          "type": "address"
        },
        {
          "internalType": "uint256",
          "name": "tokenId",
          "type": "uint256"
        },
        {
          "internalType": "bytes",
          "name": "data",
          "type": "bytes"
        }
      ],
      "name": "safeTransferFrom",
      "outputs": [],
      "stateMutability": "nonpayable",
      "type": "function"
    },
    {
      "inputs": [
        {
          "internalType": "address",
          "name": "operator",
          "type": "address"
        },
        {
          "internalType": "bool",
          "name": "approved",
          "type": "bool"
        }
      ],
      "name": "setApprovalForAll",
      "outputs": [],
      "stateMutability": "nonpayable",
      "type": "function"
    },
    {
      "inputs": [
        {
          "internalType": "bytes4",
          "name": "interfaceId",
          "type": "bytes4"
        }
      ],
      "name": "supportsInterface",
      "outputs": [
        {
          "internalType": "bool",
          "name": "",
          "type": "bool"
        }
      ],
      "stateMutability": "view",
      "type": "function"
    },
    {
      "inputs": [],
      "name": "symbol",
      "outputs": [
        {
          "internalType": "string",
          "name": "",
          "type": "string"
        }
      ],
      "stateMutability": "view",
      "type": "function"
    },
    {
      "inputs": [
        {
          "internalType": "uint256",
          "name": "tokenId",
          "type": "uint256"
        }
      ],
      "name": "tokenURI",
      "outputs": [
        {
          "internalType": "string",
          "name": "",
          "type": "string"
        }
      ],
      "stateMutability": "view",
      "type": "function"
    },
    {
      "inputs": [
        {
          "internalType": "address",
          "name": "from",
          "type": "address"
        },
        {
          "internalType": "address",
          "name": "to",
          "type": "address"
        },
        {
          "internalType": "uint256",
          "name": "tokenId",
          "type": "uint256"
        }
      ],
      "name": "transferFrom",
      "outputs": [],
      "stateMutability": "nonpayable",
      "type": "function"
    },
    {
      "inputs": [
        {
          "internalType": "address",
          "name": "newOwner",
          "type": "address"
        }
      ],
      "name": "transferOwnership",
      "outputs": [],
      "stateMutability": "nonpayable",
      "type": "function"
    }
  ],
  "bytecode": "0x60806040523480156200001157600080fd5b50604051806040016040528060128152602001712334b63a32b921b7b73732b1ba2a37b5b2b760711b815250604051806040016040528060038152602001621190d560ea1b81525081600090816200006a919062000197565b50600162000079828262000197565b50505062000096620000906200009c60201b60201c565b620000a0565b62000263565b3390565b600780546001600160a01b038381166001600160a01b0319831681179093556040519116919082907f8be0079c531659141344cd1fd0a4f28419497f9722a3daafe3b4186f6b6457e090600090a35050565b634e487b7160e01b600052604160045260246000fd5b600181811c908216806200011d57607f821691505b6020821081036200013e57634e487b7160e01b600052602260045260246000fd5b50919050565b601f8211156200019257600081815260208120601f850160051c810160208610156200016d5750805b601f850160051c820191505b818110156200018e5782815560010162000179565b5050505b505050565b81516001600160401b03811115620001b357620001b3620000f2565b620001cb81620001c4845462000108565b8462000144565b602080601f831160018114620002035760008415620001ea5750858301515b600019600386901b1c1916600185901b1785556200018e565b600085815260208120601f198616915b82811015620002345788860151825594840194600190910190840162000213565b5085821015620002535787850151600019600388901b60f8161c191681555b5050505050600190811b01905550565b61181980620002736000396000f3fe608060405234801561001057600080fd5b506004361061010b5760003560e01c8063715018a6116100a2578063b88d4fde11610071578063b88d4fde1461021b578063c87b56dd1461022e578063cd279c7c14610241578063e985e9c514610254578063f2fde38b1461029057600080fd5b8063715018a6146101e75780638da5cb5b146101ef57806395d89b4114610200578063a22cb4651461020857600080fd5b806323b872dd116100de57806323b872dd1461018d57806342842e0e146101a05780636352211e146101b357806370a08231146101c657600080fd5b806301ffc9a71461011057806306fdde0314610138578063081812fc1461014d578063095ea7b314610178575b600080fd5b61012361011e3660046111d2565b6102a3565b60405190151581526020015b60405180910390f35b6101406102f5565b60405161012f919061123f565b61016061015b366004611252565b610387565b6040516001600160a01b03909116815260200161012f565b61018b610186366004611287565b6103ae565b005b61018b61019b3660046112b1565b6104c8565b61018b6101ae3660046112b1565b6104f9565b6101606101c1366004611252565b610514565b6101d96101d43660046112ed565b610574565b60405190815260200161012f565b61018b6105fa565b6007546001600160a01b0316610160565b61014061060e565b61018b610216366004611308565b61061d565b61018b6102293660046113d0565b61062c565b61014061023c366004611252565b610664565b6101d961024f36600461144c565b61066f565b6101236102623660046114b7565b6001600160a01b03918216600090815260056020908152604080832093909416825291909152205460ff1690565b61018b61029e3660046112ed565b61068d565b60006001600160e01b031982166380ac58cd60e01b14806102d457506001600160e01b03198216635b5e139f60e01b145b806102ef57506301ffc9a760e01b6001600160e01b03198316145b92915050565b606060008054610304906114ea565b80601f0160208091040260200160405190810160405280929190818152602001828054610330906114ea565b801561037d5780601f106103525761010080835404028352916020019161037d565b820191906000526020600020905b81548152906001019060200180831161036057829003601f168201915b5050505050905090565b600061039282610706565b506000908152600460205260409020546001600160a01b031690565b60006103b982610514565b9050806001600160a01b0316836001600160a01b03160361042b5760405162461bcd60e51b815260206004820152602160248201527f4552433732313a20617070726f76616c20746f2063757272656e74206f776e656044820152603960f91b60648201526084015b60405180910390fd5b336001600160a01b038216148061044757506104478133610262565b6104b95760405162461bcd60e51b815260206004820152603d60248201527f4552433732313a20617070726f76652063616c6c6572206973206e6f7420746f60448201527f6b656e206f776e6572206f7220617070726f76656420666f7220616c6c0000006064820152608401610422565b6104c38383610765565b505050565b6104d233826107d3565b6104ee5760405162461bcd60e51b815260040161042290611524565b6104c3838383610852565b6104c38383836040518060200160405280600081525061062c565b6000818152600260205260408120546001600160a01b0316806102ef5760405162461bcd60e51b8152602060048201526018602482015277115490cdcc8c4e881a5b9d985b1a59081d1bdad95b88125160421b6044820152606401610422565b60006001600160a01b0382166105de5760405162461bcd60e51b815260206004820152602960248201527f4552433732313a2061646472657373207a65726f206973206e6f7420612076616044820152683634b21037bbb732b960b91b6064820152608401610422565b506001600160a01b031660009081526003602052604090205490565b6106026109b6565b61060c6000610a10565b565b606060018054610304906114ea565b610628338383610a62565b5050565b61063633836107d3565b6106525760405162461bcd60e51b815260040161042290611524565b61065e84848484610b30565b50505050565b60606102ef82610b63565b600061067b8484610c5e565b6106858383610c78565b509092915050565b6106956109b6565b6001600160a01b0381166106fa5760405162461bcd60e51b815260206004820152602660248201527f4f776e61626c653a206e6577206f776e657220697320746865207a65726f206160448201526564647265737360d01b6064820152608401610422565b61070381610a10565b50565b6000818152600260205260409020546001600160a01b03166107035760405162461bcd60e51b8152602060048201526018602482015277115490cdcc8c4e881a5b9d985b1a59081d1bdad95b88125160421b6044820152606401610422565b600081815260046020526040902080546001600160a01b0319166001600160a01b038416908117909155819061079a82610514565b6001600160a01b03167f8c5be1e5ebec7d5bd14f71427d1e84f3dd0314c0f7b2291e5b200ac8c7c3b92560405160405180910390a45050565b6000806107df83610514565b9050806001600160a01b0316846001600160a01b0316148061082657506001600160a01b0380821660009081526005602090815260408083209388168352929052205460ff165b8061084a5750836001600160a01b031661083f84610387565b6001600160a01b0316145b949350505050565b826001600160a01b031661086582610514565b6001600160a01b03161461088b5760405162461bcd60e51b815260040161042290611571565b6001600160a01b0382166108ed5760405162461bcd60e51b8152602060048201526024808201527f4552433732313a207472616e7366657220746f20746865207a65726f206164646044820152637265737360e01b6064820152608401610422565b826001600160a01b031661090082610514565b6001600160a01b0316146109265760405162461bcd60e51b815260040161042290611571565b600081815260046020908152604080832080546001600160a01b03199081169091556001600160a01b0387811680865260038552838620805460001901905590871680865283862080546001019055868652600290945282852080549092168417909155905184937fddf252ad1be2c89b69c2b068fc378daa952ba7f163c4a11628f55a4df523b3ef91a4505050565b6007546001600160a01b0316331461060c5760405162461bcd60e51b815260206004820181905260248201527f4f776e61626c653a2063616c6c6572206973206e6f7420746865206f776e65726044820152606401610422565b600780546001600160a01b038381166001600160a01b0319831681179093556040519116919082907f8be0079c531659141344cd1fd0a4f28419497f9722a3daafe3b4186f6b6457e090600090a35050565b816001600160a01b0316836001600160a01b031603610ac35760405162461bcd60e51b815260206004820152601960248201527f4552433732313a20617070726f766520746f2063616c6c6572000000000000006044820152606401610422565b6001600160a01b03838116600081815260056020908152604080832094871680845294825291829020805460ff191686151590811790915591519182527f17307eab39ab6107e8899845ad3d59bd9653f200f220920489ca2b5937696c31910160405180910390a3505050565b610b3b848484610852565b610b4784848484610d0b565b61065e5760405162461bcd60e51b8152600401610422906115b6565b6060610b6e82610706565b60008281526006602052604081208054610b87906114ea565b80601f0160208091040260200160405190810160405280929190818152602001828054610bb3906114ea565b8015610c005780601f10610bd557610100808354040283529160200191610c00565b820191906000526020600020905b815481529060010190602001808311610be357829003601f168201915b505050505090506000610c11610e0c565b90508051600003610c23575092915050565b815115610c55578082604051602001610c3d929190611608565b60405160208183030381529060405292505050919050565b61084a84610e2c565b610628828260405180602001604052806000815250610e93565b6000828152600260205260409020546001600160a01b0316610cf35760405162461bcd60e51b815260206004820152602e60248201527f45524337323155524953746f726167653a2055524920736574206f66206e6f6e60448201526d32bc34b9ba32b73a103a37b5b2b760911b6064820152608401610422565b60008281526006602052604090206104c38282611685565b60006001600160a01b0384163b15610e0157604051630a85bd0160e11b81526001600160a01b0385169063150b7a0290610d4f903390899088908890600401611745565b6020604051808303816000875af1925050508015610d8a575060408051601f3d908101601f19168201909252610d8791810190611782565b60015b610de7573d808015610db8576040519150601f19603f3d011682016040523d82523d6000602084013e610dbd565b606091505b508051600003610ddf5760405162461bcd60e51b8152600401610422906115b6565b805181602001fd5b6001600160e01b031916630a85bd0160e11b14905061084a565b506001949350505050565b60606040518060800160405280604481526020016117a060449139905090565b6060610e3782610706565b6000610e41610e0c565b90506000815111610e615760405180602001604052806000815250610e8c565b80610e6b84610ec6565b604051602001610e7c929190611608565b6040516020818303038152906040525b9392505050565b610e9d8383610f59565b610eaa6000848484610d0b565b6104c35760405162461bcd60e51b8152600401610422906115b6565b60606000610ed3836110e4565b600101905060008167ffffffffffffffff811115610ef357610ef3611344565b6040519080825280601f01601f191660200182016040528015610f1d576020820181803683370190505b5090508181016020015b600019016f181899199a1a9b1b9c1cb0b131b232b360811b600a86061a8153600a8504945084610f2757509392505050565b6001600160a01b038216610faf5760405162461bcd60e51b815260206004820181905260248201527f4552433732313a206d696e7420746f20746865207a65726f20616464726573736044820152606401610422565b6000818152600260205260409020546001600160a01b0316156110145760405162461bcd60e51b815260206004820152601c60248201527f4552433732313a20746f6b656e20616c7265616479206d696e746564000000006044820152606401610422565b6000818152600260205260409020546001600160a01b0316156110795760405162461bcd60e51b815260206004820152601c60248201527f4552433732313a20746f6b656e20616c7265616479206d696e746564000000006044820152606401610422565b6001600160a01b038216600081815260036020908152604080832080546001019055848352600290915280822080546001600160a01b0319168417905551839291907fddf252ad1be2c89b69c2b068fc378daa952ba7f163c4a11628f55a4df523b3ef908290a45050565b60008072184f03e93ff9f4daa797ed6e38ed64bf6a1f0160401b83106111235772184f03e93ff9f4daa797ed6e38ed64bf6a1f0160401b830492506040015b6d04ee2d6d415b85acef8100000000831061114f576d04ee2d6d415b85acef8100000000830492506020015b662386f26fc10000831061116d57662386f26fc10000830492506010015b6305f5e1008310611185576305f5e100830492506008015b612710831061119957612710830492506004015b606483106111ab576064830492506002015b600a83106102ef5760010192915050565b6001600160e01b03198116811461070357600080fd5b6000602082840312156111e457600080fd5b8135610e8c816111bc565b60005b8381101561120a5781810151838201526020016111f2565b50506000910152565b6000815180845261122b8160208601602086016111ef565b601f01601f19169290920160200192915050565b602081526000610e8c6020830184611213565b60006020828403121561126457600080fd5b5035919050565b80356001600160a01b038116811461128257600080fd5b919050565b6000806040838503121561129a57600080fd5b6112a38361126b565b946020939093013593505050565b6000806000606084860312156112c657600080fd5b6112cf8461126b565b92506112dd6020850161126b565b9150604084013590509250925092565b6000602082840312156112ff57600080fd5b610e8c8261126b565b6000806040838503121561131b57600080fd5b6113248361126b565b91506020830135801515811461133957600080fd5b809150509250929050565b634e487b7160e01b600052604160045260246000fd5b600067ffffffffffffffff8084111561137557611375611344565b604051601f8501601f19908116603f0116810190828211818310171561139d5761139d611344565b816040528093508581528686860111156113b657600080fd5b858560208301376000602087830101525050509392505050565b600080600080608085870312156113e657600080fd5b6113ef8561126b565b93506113fd6020860161126b565b925060408501359150606085013567ffffffffffffffff81111561142057600080fd5b8501601f8101871361143157600080fd5b6114408782356020840161135a565b91505092959194509250565b60008060006060848603121561146157600080fd5b61146a8461126b565b925060208401359150604084013567ffffffffffffffff81111561148d57600080fd5b8401601f8101861361149e57600080fd5b6114ad8682356020840161135a565b9150509250925092565b600080604083850312156114ca57600080fd5b6114d38361126b565b91506114e16020840161126b565b90509250929050565b600181811c908216806114fe57607f821691505b60208210810361151e57634e487b7160e01b600052602260045260246000fd5b50919050565b6020808252602d908201527f4552433732313a2063616c6c6572206973206e6f7420746f6b656e206f776e6560408201526c1c881bdc88185c1c1c9bdd9959609a1b606082015260800190565b60208082526025908201527f4552433732313a207472616e736665722066726f6d20696e636f72726563742060408201526437bbb732b960d91b606082015260800190565b60208082526032908201527f4552433732313a207472616e7366657220746f206e6f6e20455243373231526560408201527131b2b4bb32b91034b6b83632b6b2b73a32b960711b606082015260800190565b6000835161161a8184602088016111ef565b83519083019061162e8183602088016111ef565b01949350505050565b601f8211156104c357600081815260208120601f850160051c8101602086101561165e5750805b601f850160051c820191505b8181101561167d5782815560010161166a565b505050505050565b815167ffffffffffffffff81111561169f5761169f611344565b6116b3816116ad84546114ea565b84611637565b602080601f8311600181146116e857600084156116d05750858301515b600019600386901b1c1916600185901b17855561167d565b600085815260208120601f198616915b82811015611717578886015182559484019460019091019084016116f8565b50858210156117355787850151600019600388901b60f8161c191681555b5050505050600190811b01905550565b6001600160a01b038581168252841660208201526040810183905260806060820181905260009061177890830184611213565b9695505050505050565b60006020828403121561179457600080fd5b8151610e8c816111bc56fe68747470733a2f2f697066732e696f2f697066732f516d594847374e5664365873384c6f48637272653158697477394748425742723844553132644450674c4b4a52722fa264697066735822122089775e341bc76d8a8f7667be6e280a1840d7f9a64b009a785ff94f4f59bd9bff64736f6c63430008120033",
  "linkReferences": {},
  "deployedLinkReferences": {}
}